:100000000C9434000C9451000C9451000C94510049
:100010000C9451000C9488020C9451000C94DE0353
:100020000C9451000C9451000C9451000C9451000C
:100030000C9451000C9409030C9453000C9451003F
:100040000C9451000C9451000C9451000C945100EC
:100050000C9451000C9451000C9451000C945100DC
:100060000C9451000C94510011241FBECFEFD8E026
:10007000DEBFCDBF13E0A0E0B1E0E2E8FCE102C0EA
:1000800005900D92A637B107D9F723E0A6E7B3E0B4
:1000900001C01D92A23AB207E1F70E94DF080C945A
:1000A0003F0E0C9400001F920F920FB60F92112476
:1000B0002F933F934F935F936F937F938F939F9370
:1000C000AF93BF93EF93FF9380918F039091900331
:1000D000A0919103B09192030196A11DB11D80934F
:1000E0008F0390939003A0939103B0939203609138
:1000F0008F0370919003809191039091920322E37A
:1001000030E040E050E00E94380B672B682B692BF1
:1001100019F481E080938E0360918F0370919003B6
:10012000809191039091920324E630E040E050E00A
:100130000E94380B672B682B692B09F054C081E0B3
:1001400080938D03809189038F5F809389038091D1
:1001500089038C3308F447C01092890380918A0385
:100160008F5F80938A0380918A038C33B8F010925A
:100170008A0380918B038F5F80938B0380918B0325
:10018000883110F010928B0380918B03813031F411
:1001900080918A03811102C01092880380918903A3
:1001A000811121C090918A0380918B03863081F464
:1001B00081E0911112C08823B1F090918A0380915F
:1001C0008B038630B1F581E09923C1F180E036C020
:1001D0008C3029F481E0963371F380E0ECCF8231EA
:1001E00039F3882329F360918F03709190038091F4
:1001F00091039091920320E63AEE40E050E00E9495
:10020000380B672B682B692B19F481E080938C03E2
:10021000FF91EF91BF91AF919F918F917F916F91DE
:100220005F914F913F912F910F900FBE0F901F90B4
:1002300018958C30B1F482E0963341F690918803A2
:10024000982389F62091930330919403232B59F638
:1002500090918803892B8093880381E080938703A2
:10026000C2CF823121F484E09111B0CFE7CF811168
:10027000ADCF9111E3CF88E0E1CFCF92DF92EF9243
:10028000FF920F931F9300918F0310919003209181
:1002900091033091920368017901C61AD70AE80ADE
:1002A000F90AC701B6011F910F91FF90EF90DF90FF
:1002B000CF90089582E084BD95E095BD9CE997BDFF
:1002C00080936E0008951F93CF93DF93F89410915D
:1002D0008B03D0918A03C0918903789460E080E019
:1002E0000E94A4061A3020F48EEC91E00E94B90618
:1002F000812F90E00E94C5068BE691E00E94B9062E
:10030000DA3020F48EEC91E00E94B9068D2F90E057
:100310000E94C5068BE691E00E94B906CA3020F41F
:100320008EEC91E00E94B9068C2F90E00E94C506E9
:100330008AE191E0DF91CF911F910C94B9061F9350
:10034000CF93DF93EC01142F60E081E00E94A406BC
:1003500080E191E00E94B90660E081E00E94A4067D
:10036000C130D105A1F040F086E491E0249750F02F
:10037000DF91CF911F91089581E291E0111102C0A8
:100380008BE291E0DF91CF911F910C94B90687E346
:1003900091E0F8CFCF93DF9300D000D000D01F9230
:1003A000CDB7DEB789E18F838CE08E8392E19D83A8
:1003B0008B8385E38A8384E3898381E08C83CE0108
:1003C00001960E940A082FEF81EE94E021508040B0
:1003D0009040E1F700C00000F8948B8180938B037C
:1003E0008A8180938A03898180938903789484E544
:1003F00091E00E94DC058DE691E00E94A4058F81CA
:1004000090E00E94B00582E791E00E94A4058E81F1
:100410008A3020F48EEC91E00E94A4058E8190E059
:100420000E94B00582E791E00E94A4058D818A3088
:1004300020F48EEC91E00E94A4058D8190E00E9452
:10044000B0058FE191E00E94A4058B818A3020F4F1
:100450008EEC91E00E94A4058B8190E00E94B00593
:100460008BE691E00E94A4058A818A3020F48EEC0C
:1004700091E00E94A4058A8190E00E94B0058BE67D
:1004800091E00E94A40589818A3020F48EEC91E0ED
:100490000E94A405898190E00E94B00580E291E06D
:1004A0000E94DC0584E791E00E94DC0527960FB6E8
:1004B000F894DEBF0FBECDBFDF91CF910895CF93EB
:1004C000DF9300D000D000D01F92CDB7DEB7CE01B1
:1004D00001960E945508811118C0F8948B81809371
:1004E0008B038A8180938A0389818093890378941E
:1004F0008DE891E00E94DC0527960FB6F894DEBFE8
:100500000FBECDBFDF91CF9108958FEA91E0F2CF7A
:100510001F920F920FB60F9211242F933F934F9378
:100520005F936F937F938F939F93AF93BF93EF935B
:10053000FF9366E082E090E00E94710520919C03A9
:1005400030919D032130310509F58130F9F4809116
:1005500084009091850090939B0380939A0382E09E
:1005600090E090939D0380939C03FF91EF91BF9146
:10057000AF919F918F917F916F915F914F913F913B
:100580002F910F900FBE0F901F90189520919C03F4
:1005900030919D032230310541F78111E6CF8091E2
:1005A0008400909185009093990380939803209103
:1005B00098033091990380919A0390919B03281797
:1005C0003907E8F0809198039091990320919A035C
:1005D00030919B03821B930B909397038093960318
:1005E00083E090E090939D0380939C0381E080934F
:1005F0009503809168008B7F80936800B6CF8091CF
:1006000098039091990320919A0330919B0301974D
:10061000E1CF1F920F920FB60F9211248F939F93E9
:1006200080919C0390919D03019731F080919C03F0
:1006300090919D03029781F410929D0310929C0368
:10064000109297031092960381E080939503809116
:1006500068008B7F809368009F918F910F900FBEF1
:100660000F901F90189541E050E067E082E090E025
:100670000E94B20450E040E066E082E090E00E9418
:10068000B20450E040E067E082E090E00E9419058B
:100690001092800082E08093810010928500109279
:1006A000840081E080936F0080E480936D00089562
:1006B00080919C0390919D03892B49F5109295039D
:1006C000109297031092960381E090E090939D031F
:1006D00080939C03109285001092840084E08BBB71
:1006E0008091680084608093680041E050E067E09A
:1006F00082E090E00E94190585E38A95F1F70000F9
:1007000050E040E067E082E090E00C941905089525
:100710008091950308958091960390919703089591
:100720008091960390919703892B51F080919603C5
:100730009091970364E770E00E94240BCB01089529
:1007400090E080E0089510929D0310929C03109217
:10075000950308951092A1039093A00380939F03A3
:1007600081E080939E03089580919E03811103C0D0
:1007700081E080939E03089510929E031092A0033F
:1007800010929F0350E040E060E090E080E00E9423
:10079000190550E040E061E090E080E00E9419051A
:1007A00050E040E062E090E080E00E94190550E0F7
:1007B00040E063E090E080E00C9419051F920F92F6
:1007C0000FB60F9211242F933F934F935F936F9324
:1007D0007F938F939F93AF93BF93EF93FF938091FA
:1007E0009E03882309F476C080919F039091A00313
:1007F000892B09F46FC0E091A10384E0E89FF00128
:100800001124E050FF4F41E050E08081811102C08F
:1008100050E040E060E090E080E00E941905E09147
:10082000A10384E0E89FF0011124E050FF4F41E074
:1008300050E08181811102C050E040E061E090E031
:1008400080E00E941905E091A10384E0E89FF00197
:100850001124E050FF4F41E050E08281811102C03D
:1008600050E040E062E090E080E00E941905E091F5
:10087000A10384E0E89FF0011124E050FF4F41E024
:1008800050E08381811102C050E040E063E090E0DD
:1008900080E00E9419058091A10390E00196837089
:1008A00099278093A10380919F039091A0030297C1
:1008B00010F180919F039091A00302979093A00361
:1008C00080939F0380919F039091A003892B11F443
:1008D0000E94BC03FF91EF91BF91AF919F918F91C7
:1008E0007F916F915F914F913F912F910F900FBE2C
:1008F0000F901F9018951092A00310929F03E2CFC3
:1009000041E050E060E090E080E00E94B20441E00D
:1009100050E061E090E080E00E94B20441E050E0ED
:1009200062E090E080E00E94B20441E050E063E0C9
:1009300090E080E00E94B2040E94BC0382E08093B9
:10094000B00097E09093B1009FE19093B300809343
:100950007000089580919E03089580919F03909167
:10096000A003089581309105A1F018F00297F9F0E5
:10097000089581E090E001C0880F6A95EAF794B18C
:100980004130510519F4892B84B908958095892344
:10099000FBCF01C0880F6A95EAF797B14130510546
:1009A00019F4892B87B9089580958923FBCF81E0BD
:1009B00090E001C0880F6A95EAF79AB1413051057D
:1009C00019F4892B8AB9089580958923FBCF81304A
:1009D000910599F018F00297E9F0089581E090E010
:1009E00001C0880F6A95EAF795B1442319F0892B65
:1009F00085B9089580958923FBCF01C0880F6A953A
:100A0000EAF798B1442319F0892B88B908958095A5
:100A10008923FBCF81E090E001C0880F6A95EAF757
:100A20009BB1442319F0892B8BB9089580958923B4
:100A3000FBCF81309105A1F018F00297F9F00895ED
:100A400081E090E001C0880F6A95EAF795B14130E6
:100A5000510519F4892B85B9089580958923FBCF19
:100A600001C0880F6A95EAF798B14130510519F431
:100A7000892B88B9089580958923FBCF81E090E088
:100A800001C0880F6A95EAF79BB14130510519F40E
:100A9000892B8BB9089580958923FBCF81309105EF
:100AA00071F018F0029799F0089585B121E030E0D7
:100AB00001C0220F6A95EAF7822785B9089528B107
:100AC00001C0880F6A95EAF7822788B908958BB12B
:100AD00021E030E001C0220F6A95EAF782278BB946
:100AE00008958130910581F028F0029779F090E027
:100AF00080E0089583B190E002C0959587956A954E
:100B0000E2F781709927089586B1F5CF89B1F3CFC7
:100B10009B01AC0160E472E48FE090E00E94380B2E
:100B2000215031093093C5002093C40088E08093A0
:100B3000C10086E08093C20008959091C00095FFA7
:100B4000FCCF8093C6000895CF93DF93EC01899189
:100B5000811103C0DF91CF9108950E949D05F7CFC9
:100B60000F931F93CF93DF9300D000D000D0CDB769
:100B7000DEB79F938F9382E793E09F938F931F92AB
:100B800086E08F938E010F5F1F4F1F930F930E947C
:100B90005A0BC8010E94A4050FB6F894DEBF0FBE21
:100BA000CDBF26960FB6F894DEBF0FBECDBFDF9146
:100BB000CF911F910F9108950E94A4058DE00E948E
:100BC0009D058AE00C949D0588E48093B8001092FE
:100BD000B90084E08093BC00089584EA8093BC004F
:100BE0008091BC0087FFFCCF089584E98093BC000E
:100BF00008958093BB0084E88093BC008091BC0082
:100C000087FFFCCF089584EC8093BC008091BC00EA
:100C100087FFFCCF8091BB00089584E88093BC00DF
:100C20008091BC0087FFFCCF8091BB000895CF93DB
:100C3000C82FC62B0E94ED058EE40E94F9058C2F6B
:100C40008C600E94F90585E08A95F1F700008C2FF1
:100C500088600E94F90587EC90E00197F1F700C0E9
:100C60000000CF910C94F505CF93C82F60E0807FF2
:100C70000E94170660E08C2F8295807F0E941706E5
:100C80008FE39FE10197F1F700C00000CF91089535
:100C9000CF93C82F61E0807F0E94170661E08C2F00
:100CA0008295807F0E9417068FE39FE10197F1F7FD
:100CB00000C00000CF91089581E00E9434068FE3C8
:100CC0009FE10197F1F700C0000008950E94E4053C
:100CD0002FEF80E792E0215080409040E1F700C084
:100CE000000060E080E30E9417068FE19EE4019718
:100CF000F1F700C0000060E080E30E94170687E57E
:100D000092E00197F1F700C0000060E080E30E94EC
:100D100017068FE19EE40197F1F700C0000060E044
:100D200080E20E9417068FE19EE40197F1F700C070
:100D3000000088E20E9434068CE00E9434060E9483
:100D40005C0686E00C943406CF93DF9300D0CDB7D9
:100D5000DEB7198290E49A838C0F9D2F911DFC01C0
:100D60008181860F80680F900F90DF91CF910C9456
:100D70003406CF93DF93EC018991811103C0DF9199
:100D8000CF9108950E944806F7CF0F931F93CF93FA
:100D9000DF9300D000D000D0CDB7DEB79F938F9304
:100DA00082E793E09F938F931F9286E08F938E014B
:100DB0000F5F1F4F1F930F930E945A0BC8010E9491
:100DC000B9060FB6F894DEBF0FBECDBF26960FB69C
:100DD000F894DEBF0FBECDBFDF91CF911F910F9171
:100DE000089550E040E064E082E090E00C94190542
:100DF00050E040E062E082E090E00C941905CF936F
:100E0000DF93D82F41E050E063E082E090E00E9461
:100E1000B204C8E00E94F80641E050E0D0FD02C0F4
:100E200050E040E063E082E090E00E9419058AE033
:100E30008A95F1F700C041E050E062E082E090E086
:100E40000E9419058AE08A95F1F700C0D695C15035
:100E500009F7DF91CF910C94F806EF92FF921F9360
:100E6000CF93DF93C82F0E94F1060E94F80625E178
:100E70002A95F1F7000041E050E064E082E090E064
:100E80000E94190585E18A95F1F700008C2F816099
:100E90000E94FF0650E040E063E082E090E00E94A4
:100EA000B20441E063E082E090E00E94E704D0E019
:100EB000C0E010E0EE24E394F12C0E94F8062AE052
:100EC0002A95F1F700C063E082E090E00E9471058E
:100ED000882339F0C7010C2E01C0880F0A94EAF765
:100EE000182B41E050E062E082E090E00E9419059A
:100EF0008AE08A95F1F700C02196C830D105E9F65D
:100F00000E94F10625E12A95F1F70000812FDF917B
:100F1000CF911F91FF90EF900895CF93DF93D82F3B
:100F2000C62F0E94F1060E94F80685E18A95F1F726
:100F3000000041E050E064E082E090E00E9419058A
:100F400085E18A95F1F700008D2F0E94FF068C2F16
:100F50000E94FF060E94F10685E18A95F1F70000E4
:100F6000DF91CF910895982F92959F708F702AE00E
:100F7000929F800D112408956AE00E94180B292F7A
:100F800030E1839FC0011124822B089541E050E09D
:100F900062E082E090E00E94B20441E050E063E051
:100FA00082E090E00E94B20441E050E064E082E020
:100FB00090E00E94B2040E94F1060E94F80650E000
:100FC00040E063E082E090E00E9419052FEF80E7A7
:100FD00092E0215080409040E1F700C0000060E0C6
:100FE0008EE80E948D078FE39CE90197F1F700C01E
:100FF000000080E80E942D0787FF0BC0682F6F77E5
:1010000080E80E948D078FE39CE90197F1F700C00B
:1010100000000895CF93DF93EC0160E08EE80E941A
:101020008D078FE19EE40197F1F700C000008881F1
:101030000E94BC07682F6F7780E80E948D07898126
:101040000E94BC07682F82E80E948D078A810E9457
:10105000BC07682F84E80E948D078C810E94BC0722
:10106000682F86E80E948D078D810E94BC07682F3B
:1010700088E80E948D078B810E94BC07682F8AE850
:101080000E948D078E810E94BC07682F8CE80E9409
:101090008D078FE19EE40197F1F700C0000060E842
:1010A0008EE8DF91CF910C948D079F92AF92BF9203
:1010B000CF92DF92EF92FF920F931F93CF93DF9324
:1010C000EC0180E80E942D07082F82E80E942D077E
:1010D000182F84E80E942D07D82E86E80E942D073D
:1010E000982E88E80E942D07A82E8AE80E942D07D6
:1010F000B82E8CE80E942D07C82E0F3FC1F41F3F69
:10110000E1F41A821982188281E08C838D838B83AB
:1011100088E18E8381E0DF91CF911F910F91FF9045
:10112000EF90DF90CF90BF90AF909F900895011106
:1011300004C0111102C0DD2021F3802F8F770E949F
:10114000B307F82E8883812F8F770E94B307E82E8C
:1011500089838D2D8F730E94B307D82E8A83892DA2
:101160008F730E94B307182F8C838A2D8F710E9472
:10117000B307082F8D838B2D87700E94B3078B8355
:101180008C2D0E94B3078E8387E18D1558F08BE379
:101190008E1540F08F1530F00D3020F480E01032C5
:1011A00008F4B9CF1A8219821882B4CFFC01818168
:1011B000811103C081E09081911180E0089560E881
:1011C00075E280E090E00E9488050E9433030E944F
:1011D00080040E9466060E94C6070E945A01789405
:1011E0000E945C0660E080E00E94A40680EC91E032
:1011F0000E94B90660E081E00E94A40680ED91E0C3
:101200000E94B9062FEF8DE399E421508040904071
:10121000E1F700C000008CED91E00E94DC0584EF56
:1012200091E00E94DC050E94CA018EE092E00E94DB
:10123000DC058CE192E00E94DC058CE292E00E94E9
:10124000DC050E945C0666246A9410E000E0D0E0B1
:10125000C0E082E0882E912C94E7E92EF12CCC247A
:10126000C394D12C5524539433E0A32EB12C8091F8
:101270008D03882321F010928D030E9463018091D9
:101280008C03882321F010928C030E945F028091CE
:101290008703882301F18091930390919403892B14
:1012A000D1F41092870384E492E00E94DC059092CE
:1012B00094038092930380918F0390919003A09167
:1012C0009103B091920380937F0390938003A09346
:1012D0008103B093820380918E03882309F4A3C015
:1012E0008091930390919403892B39F0809193031B
:1012F00090919403019709F096C010928E0380910B
:101300007A03811119C00E94580350927A03809188
:101310008F0390919003A0919103B09192038093D9
:10132000760390937703A0937803B093790388E6CC
:1013300092E00E94DC0577C080918F03909190032A
:10134000A0919103B091920340917603509177035D
:101350006091780370917903841B950BA60BB70BF2
:101360000397A105B10508F45EC00E948803882395
:1013700009F4DFC00E948B03B7010E94240BEB012C
:1013800089E792E00E94A405CE010E94B00584E89E
:1013900092E00E94DC050E94A30310927A03CE0122
:1013A0000197439708F0B5C080918F039091900307
:1013B000A0919103B09192034091830350918403D3
:1013C0006091850370918603841B950BA60BB70B68
:1013D0008C329140A105B10508F498C08091930327
:1013E00090919403892BF9F488E892E00E94A40577
:1013F000CE010E94B00584E892E00E94DC05D09204
:101400009403C092930380918F0390919003A091D5
:101410009103B091920380937B0390937C03A093FC
:101420007D03B0937E038091930390919403823067
:10143000910509F489C08330910509F4B8C001977A
:1014400089F580918F0390919003A0919103B091C1
:10145000920340917B0350917C0360917D037091D6
:101460007E03841B950BA60BB70B84369105A10553
:10147000B105C0F08BED92E00E94DC05B0929403C0
:10148000A092930380918F0390919003A091910378
:10149000B091920380937F0390938003A093810384
:1014A000B093820380918F0390919003A091910358
:1014B000B09192034091830350918403609185031E
:1014C00070918603841B950BA60BB70B772473943E
:1014D0008C329140A105B10508F0712C80919303E5
:1014E000909194038017910711F4671461F0809133
:1014F000930390919403472DBE010E949F01809118
:10150000930390919403672C8C01B1CE89E992E00A
:1015100010CF8091930390919403019709F083CFAA
:101520008DEB92E00E94DC051092940310929303DD
:101530007ACF8CEC92E00E94DC050E94A30310920B
:101540007A03D0E0C0E06FCF0E94AA04811108C0E6
:1015500088E59BE10E94AA0386EF92E00E94DC05E9
:1015600080918F0390919003A0919103B091920389
:1015700040917F03509180036091810370918203B9
:10158000841B950BA60BB70B8C3B9240A105B105B4
:1015900008F488CF0E94BC0387E193E00E94DC0539
:1015A0001092940310929303D0E0C0E07BCF0E948E
:1015B000AA04811108C088EB9BE00E94AA0380E383
:1015C00093E00E94DC0580918F0390919003A0919D
:1015D0009103B091920340917F03509180036091F9
:1015E000810370918203841B950BA60BB70B8C3281
:1015F0009140A105B10508F455CF0E94BC0381E5D7
:1016000093E00E94DC051092940310929303809162
:101610008F0390919003A0919103B09192038093D6
:10162000830390938403A0938503B0938603BCCF78
:10163000991B79E004C0991F961708F0961B881F24
:101640007A95C9F780950895AA1BBB1B51E107C085
:10165000AA1FBB1FA617B70710F0A61BB70B881F42
:10166000991F5A95A9F780959095BC01CD010895D1
:10167000A1E21A2EAA1BBB1BFD010DC0AA1FBB1F96
:10168000EE1FFF1FA217B307E407F50720F0A21B08
:10169000B30BE40BF50B661F771F881F991F1A9475
:1016A00069F760957095809590959B01AC01BD019F
:1016B000CF010895AEE0B0E0E0E6FBE00C94160E3A
:1016C0000D891E898F89988D26E02C831A830983C2
:1016D00097FF02C080E090E801979E838D83AE0162
:1016E000455E5F4F698D7A8DCE0101960E948A0B0F
:1016F0004D815E8157FD0AC02F81388542175307FF
:101700000CF49A01020F131FF80110822E96E4E0E8
:101710000C94320EABE0B0E0E0E9FBE00C94080E74
:101720007C013B018A01FC0117821682838181FFC3
:10173000C8C1CE0101965C01F7019381F30193FDCD
:10174000859193FF81913F01882309F453C185322C
:1017500039F493FD859193FF81913F01853229F4FE
:10176000B70190E00E947A0DE7CF912C212C312C0B
:10177000FFE1F31538F08B3211F190F4803209F16A
:10178000833229F137FC3CC020ED280F2A3050F578
:1017900036FE20C08AE0989E200D1124922E06C0AD
:1017A0008D3291F0803371F7689430F8F30193FD36
:1017B000859193FF81913F018111DACF21C0689417
:1017C00031F8689432F8F2CF689433F8EFCF689428
:1017D00034F8ECCFEAE02E9E200D1124222E6894DE
:1017E00035F8E4CF8E3229F436FC04C1689436F81B
:1017F000DDCF8C3619F4689437F8D8CF8836B1F23B
:10180000982F9F7D95549330E0F08336A1F1833774
:10181000C1F1833509F063C02801F2E04F0E511C7D
:10182000F801C080D180692D70E036FC02C06FEFF6
:101830007FEFC6010E94640D4C01689437F8820165
:101840000AC00C5F1F4FFFE3F98388248394912C17
:101850006501E89437F833FE2DC0522C81149104B1
:1018600071F5552009F468CFB70180E290E00E943D
:101870007A0D5A94F6CFF801808189830E5F1F4F4D
:10188000E4CF2801F2E04F0E511CF801C080D18056
:10189000692D70E036FC02C06FEF7FEFC6010E9439
:1018A0006F0D4C018201D5CFB70180E290E00E941C
:1018B0007A0D2A942814190409F0B0F7CECFF60156
:1018C00037FC859137FE81916F01B70190E00E944E
:1018D0007A0D51105A94F1E08F1A9108BFCF8436D7
:1018E00019F0893609F077C0F80137FE6BC06081C6
:1018F0007181828193810C5F1F4FF32DFF763F2E04
:1019000097FF09C090958095709561957F4F8F4F97
:101910009F4F689437F82AE030E0A5010E94AA0D95
:10192000C82ECA188C2C432C36FE0CC0E89440F804
:10193000C91440F434FE05C032FC03C0F32DFE7E12
:101940004F2E892C44FE95C0FE01EC0DF11D8081C7
:10195000803309F087C0242D297E422E842D887083
:10196000582E43FC95C040FE8FC09C2C821418F466
:101970002C0C922C981844FE91C0B70180E390E0A3
:101980000E947A0D42FE09C088E790E041FE02C045
:1019900088E590E0B7010E947A0DC91408F48AC066
:1019A000CA94D12C9FEFC91AD90ACA0CDB1CF601C4
:1019B00082916F01B70190E00E947A0DAC14BD04D2
:1019C000B1F74FCF60817181072E000C880B990B06
:1019D0000E5F1F4F92CFD32CE894D4F82AE030E06A
:1019E000853739F1232D297FD22E8F3601F148F426
:1019F0008835A9F0F701868197812B96E2E10C9456
:101A0000240E803749F08837A9F7D4FE02C06894C5
:101A1000D2F820E130E00DC06894D4F8F6CF34FE5F
:101A200003C0822F8660D82E20E132E002C028E079
:101A300030E0F801D7FE0FC060817181828193810F
:101A40000C5F1F4FA5010E94AA0DC82ECA183D2C7D
:101A5000E89437F867CF6081718190E080E00E5F95
:101A60001F4FF0CF42FC02C0839478CF83948394BD
:101A700075CF842D867809F471CFF6CFB70180E257
:101A800090E00E947A0D83948214C0F3512C73CF9E
:101A9000522C5818821408F46ECFF8CF842D867813
:101AA00009F47BCF8BE241FE80E247FC8DE2B70177
:101AB00090E071CFB70180E390E00E947A0D9A9494
:101AC0006CCF8FEF9FEF99CFFC0105906150704074
:101AD0000110D8F7809590958E0F9F1F0895FC01F7
:101AE0006150704001900110D8F7809590958E0F4D
:101AF0009F1F08950F931F93CF93DF93182F092FE4
:101B0000EB018B8181FD09C01FEF0FEF812F902F1B
:101B1000DF91CF911F910F91089582FF14C02E8104
:101B20003F818C819D81281739073CF4E881F98138
:101B3000CF0101969983888310838E819F810196BE
:101B40009F838E83E3CFE885F985812F0995892BC3
:101B5000A1F3DACFFA01AA27283051F1203181F11F
:101B6000E8946F936E7F6E5F7F4F8F4F9F4FAF4FA5
:101B7000B1E03ED0B4E03CD0670F781F891F9A1FB8
:101B8000A11D680F791F8A1F911DA11D6A0F711D6C
:101B9000811D911DA11D20D009F468943F912AE078
:101BA000269F11243019305D3193DEF6CF01089560
:101BB000462F4770405D4193B3E00FD0C9F7F6CF91
:101BC000462F4F70405D4A3318F0495D31FD405259
:101BD000419302D0A9F7EACFB4E0A69597958795EF
:101BE00077956795BA95C9F70097610571050895CE
:101BF0009B01AC010A2E069457954795379527957A
:101C0000BA95C9F7620F731F841F951FA01D089511
:101C10002F923F924F925F926F927F928F929F92FC
:101C2000AF92BF92CF92DF92EF92FF920F931F93EA
:101C3000CF93DF93CDB7DEB7CA1BDB0B0FB6F8949B
:101C4000DEBF0FBECDBF09942A88398848885F84DB
:101C50006E847D848C849B84AA84B984C884DF804C
:101C6000EE80FD800C811B81AA81B981CE0FD11D30
:101C70000FB6F894DEBF0FBECDBFED010895F89406
:021C8000FFCF94
:101C8200010000010101000000010100000001014A
:101C92002020202020202020202020202020202042
:101CA200004E657874204D65616C00536E61636B04
:101CB20020526561647900446574656374656420CB
:101CC2003C3230636D0044697370656E73696E6790
:101CD2002E2E2E005254432073657420746F20639D
:101CE2006F6D70696C652074696D653A00202032F1
:101CF20030002D00536F6674776172652052544331
:101D020020696E697469616C697A656400536F66F3
:101D12007477617265205254432073796E636564EF
:101D22002077697468206861726477617265005215
:101D320054432073796E63206661696C6564210087
:101D4200436174204665656465722076322E3000E8
:101D52005374617274696E672E2E2E003D3D3D20D4
:101D6200436174204665656465722076322E3020A8
:101D72003D3D3D00496E746572727570742D4472FA
:101D82006976656E205363686564756C6500537986
:101D92007374656D207265616479210053656E7399
:101DA2006F7220656E61626C656421003D3D3D3D50
:101DB2003D3D3D3D3D3D3D3D3D3D3D3D3D3D3D3D51
:101DC2003D3D3D005363686564756C6564206665DE
:101DD2006564696E672074726967676572656420FD
:101DE200627920495352210053656E736F722074D9
:101DF20072696767657265640044697374616E63D2
:101E0200653A200020636D00436174206465746547
:101E1200637465642061742000436F6F6C646F7734
:101E22006E206163746976652C2069676E6F7269D2
:101E32006E6720646574656374696F6E00436174D4
:101E4200206D6F76656420617761790053656E73EA
:101E52006F722074696D656F75740053746172746A
:101E6200696E6720736E61636B2064697370656E5F
:101E720073652E2E2E004D6F746F72207374617213
:101E820074656420666F72207363686564756C653F
:101E9200642066656564005363686564756C656497
:101EA200206665656420636F6D706C6574652100E2
:101EB2004D6F746F72207374617274656420666F03
:101EC2007220736E61636B2064697370656E7365F3
:101ED20000536E61636B20636F6D706C6574652176
:101EE20020436F6F6C646F776E20616374697665EF
:061EF2002E002575000022
:00000001FF
