:100000000C9434000C9451000C9451000C94510049
:100010000C9451000C9451000C9451000C9451001C
:100020000C9451000C9451000C9451000C9451000C
:100030000C9451000C9451000C9453000C945100FA
:100040000C9451000C9451000C9451000C945100EC
:100050000C9451000C9451000C9451000C945100DC
:100060000C9451000C94510011241FBECFEFD8E026
:10007000DEBFCDBF11E0A0E0B1E0EEE1F9E102C0EA
:1000800005900D92A838B107D9F721E0A8E8B1E0B2
:1000900001C01D92A03AB207E1F70E9493070C94A9
:1000A0008D0C0C9400001F920F920FB60F9211242A
:1000B0002F933F934F935F936F937F938F939F9370
:1000C000AF93BF93EF93FF93809197019091980125
:1000D000A0919901B0919A010196A11DB11D809343
:1000E000970190939801A0939901B0939A01609120
:1000F0009701709198018091990190919A0122E362
:1001000030E040E050E00E948609672B682B692BA5
:1001100019F481E0809396016091970170919801A4
:100120008091990190919A0124E630E040E050E0FE
:100130000E948609672B682B692B19F481E0809354
:100140009501FF91EF91BF91AF919F918F917F9119
:100150006F915F914F913F912F910F900FBE0F9034
:100160001F901895CF92DF92EF92FF920F931F93FB
:1001700000919701109198012091990130919A0175
:1001800068017901C61AD70AE80AF90AC701B60157
:100190001F910F91FF90EF90DF90CF90089582E034
:1001A00084BD95E095BD9CE997BD80936E00089550
:1001B000CF93DF93EC0160E080E00E9458058A81D4
:1001C0008A3020F485E691E00E946D058A8190E0F6
:1001D0000E94790581E191E00E946D0589818A3054
:1001E00020F485E691E00E946D05898190E00E94EF
:1001F000790581E191E00E946D0588818A3020F4C3
:1002000085E691E00E946D05888190E00E94790565
:100210008DE191E0DF91CF910C946D051F93CF9309
:10022000DF93EC01142F60E081E00E94580583E128
:1002300091E00E946D0560E081E00E945805C130A8
:10024000D105A1F040F089E491E0249750F0DF91CE
:10025000CF911F91089584E291E0111102C08EE2C6
:1002600091E0DF91CF911F910C946D058AE391E0AD
:10027000F8CF813041F490910001913021F010923B
:100280008801809300010895863031F08C3021F090
:10029000823111F0811102C081E0611180E0089586
:1002A000863021F481E0611180E008958C3021F4E2
:1002B0006111FACF82E00895823121F46111F4CF07
:1002C00084E008958111F0CF6111EFCF88E00895A7
:1002D00041E050E067E082E090E00E94660350E079
:1002E00040E066E082E090E00E94660350E040E07B
:1002F00067E082E090E00E94CD031092800082E0EF
:1003000080938100109285001092840008950F93CD
:100310001F93CF93DF9310929D0110929F01109233
:100320009E0141E050E067E082E090E00E94CD0352
:1003300085E38A95F1F7000050E040E067E082E055
:1003400090E00E94CD03C9E8D3E166E082E090E04E
:100350000E942504892B11F11092850010928400CF
:10036000C0918400D091850001E315E766E082E04A
:1003700090E00E9425040197E1F080918400909123
:1003800085008C179D07E8F08C1B9D0B90939F01B7
:1003900080939E0181E080939D0106C08AE08A954A
:1003A000F1F700C0219789F6DF91CF911F910F914E
:1003B000089501501109C1F38AE08A95F1F700C050
:1003C000D5CF0197E1CF80919D01089580919E0145
:1003D00090919F010895CF93DF93C1E0D1E041E078
:1003E00050E08881811102C050E040E060E090E080
:1003F00080E00E94CD0341E050E08981811102C07C
:1004000050E040E061E090E080E00E94CD0341E0F8
:1004100050E08A81811102C050E040E062E090E04B
:1004200080E00E94CD0341E050E08B81811102C049
:1004300050E040E063E090E080E00E94CD038FE375
:100440009FE10197F1F700C00000249691E0C131CF
:10045000D90729F6DF91CF9108950F931F93CF937A
:10046000DF93C1E0D1E001EF10E041E050E08C8586
:10047000811102C050E040E060E090E080E00E9426
:10048000CD0341E050E08D85811102C050E040E095
:1004900061E090E080E00E94CD0341E050E08E8575
:1004A000811102C050E040E062E090E080E00E94F4
:1004B000CD0341E050E08F85811102C050E040E063
:1004C00063E090E080E00E94CD038FE39FE101971D
:1004D000F1F700C0000024970C171D0731F6DF91DB
:1004E000CF911F910F9108950F931F93CF93DF9397
:1004F0008C01D0E0C0E0C017D10729F4DF91CF9183
:100500001F910F9108950E94EB012196F4CF0F9354
:100510001F93CF93DF938C01D0E0C0E0C017D107C9
:1005200029F4DF91CF911F910F9108950E942D0220
:100530002196F4CF50E040E060E090E080E00E943F
:10054000CD0350E040E061E090E080E00E94CD0308
:1005500050E040E062E090E080E00E94CD0350E097
:1005600040E063E090E080E00C94CD0341E050E097
:1005700060E090E080E00E94660341E050E061E0CE
:1005800090E080E00E94660341E050E062E090E08D
:1005900080E00E94660341E050E063E090E080E08C
:1005A0000E9466030C949A0220E0982F990F822FE4
:1005B00068E671E00E947209CB011816190614F45E
:1005C0000C9474029195819591090C9487028F92F5
:1005D0009F92AF92BF92CF92DF92EF92FF920F93D2
:1005E0001F93CF93DF937C018FEF9FE1E89E600123
:1005F000E99ED00CF89ED00C1124D0E0C0E0470159
:1006000082E3881A910892E3C90ED11C42E3A42E1A
:10061000B12C0AE0CE15DF0569F4DF91CF911F916F
:100620000F91FF90EF90DF90CF90BF90AF909F9091
:100630008F900895C233D105C0F4CE0133E0880F06
:10064000991F3A95E1F7B5010E945E09102F161B1C
:100650000E94EB01115010F42196DCCF8FE99FE04E
:100660000197F1F700C00000F5CF8C169D06C0F48D
:10067000C6018C0F9D1F23E0880F991F2A95E1F773
:10068000B5010E945E09162F0E94EB0111501D3F1B
:1006900019F38FE99FE00197F1F700C00000F6CF52
:1006A0000E94EB01D9CF0F931F93CF93DF938C015F
:1006B000D0E0C0E0C017D10728F0DF91CF911F91A3
:1006C0000F9108950E94EB012896F4CF8130910597
:1006D000A1F018F00297F9F0089581E090E001C0D0
:1006E000880F6A95EAF794B14130510519F4892BC6
:1006F00084B9089580958923FBCF01C0880F6A953E
:10070000EAF797B14130510519F4892B87B908955B
:1007100080958923FBCF81E090E001C0880F6A9526
:10072000EAF79AB14130510519F4892B8AB9089535
:1007300080958923FBCF8130910599F018F00297BD
:10074000E9F0089581E090E001C0880F6A95EAF72A
:1007500095B1442319F0892B85B908958095892393
:10076000FBCF01C0880F6A95EAF798B1442319F0CE
:10077000892B88B9089580958923FBCF81E090E08B
:1007800001C0880F6A95EAF79BB1442319F0892BC1
:100790008BB9089580958923FBCF81309105A1F015
:1007A00018F00297F9F0089581E090E001C0880FF9
:1007B0006A95EAF795B14130510519F4892B85B94D
:1007C000089580958923FBCF01C0880F6A95EAF7C9
:1007D00098B14130510519F4892B88B90895809555
:1007E0008923FBCF81E090E001C0880F6A95EAF78A
:1007F0009BB14130510519F4892B8BB9089580952F
:100800008923FBCF8130910571F018F0029799F0A0
:10081000089585B121E030E001C0220F6A95EAF722
:10082000822785B9089528B101C0880F6A95EAF733
:10083000822788B908958BB121E030E001C0220FF2
:100840006A95EAF782278BB908958130910581F086
:1008500028F0029779F090E080E0089583B190E06D
:1008600002C0959587956A95E2F78170992708955A
:1008700086B1F5CF89B1F3CF9B01AC0160E472E49E
:100880008FE090E00E948609215031093093C50025
:100890002093C40088E08093C10086E08093C2006A
:1008A00008959091C00095FFFCCF8093C6000895F5
:1008B000CF93DF93EC018991811103C0DF91CF9138
:1008C00008950E945104F7CF0F931F93CF93DF93A6
:1008D00000D000D000D0CDB7DEB79F938F9384E8CF
:1008E00091E09F938F931F9286E08F938E010F5F0D
:1008F0001F4F1F930F930E94A809C8010E9458041C
:100900000FB6F894DEBF0FBECDBF26960FB6F89493
:10091000DEBF0FBECDBFDF91CF911F910F91089524
:100920000E9458048DE00E9451048AE00C94510406
:1009300088E48093B8001092B90084E08093BC00F2
:10094000089584EA8093BC008091BC0087FFFCCFAF
:10095000089584E98093BC0008958093BB0084E8E7
:100960008093BC008091BC0087FFFCCF089584EC8D
:100970008093BC008091BC0087FFFCCF8091BB00BE
:10098000089584E88093BC008091BC0087FFFCCF71
:100990008091BB000895CF93C82FC62B0E94A1045D
:1009A0008EE40E94AD048C2F8C600E94AD0485E023
:1009B0008A95F1F700008C2F88600E94AD0487ECC7
:1009C00090E00197F1F700C00000CF910C94A904CA
:1009D000CF93C82F60E0807F0E94CB0460E08C2F13
:1009E0008295807F0E94CB048FE39FE10197F1F70E
:1009F00000C00000CF910895CF93C82F61E0807FA1
:100A00000E94CB0461E08C2F8295807F0E94CB04F2
:100A10008FE39FE10197F1F700C00000CF910895A7
:100A200081E00E94E8048FE39FE10197F1F700C0A5
:100A3000000008950E9498042FEF80E792E0215073
:100A400080409040E1F700C0000060E080E30E9439
:100A5000CB048FE19EE40197F1F700C0000060E055
:100A600080E30E94CB0487E592E00197F1F700C094
:100A7000000060E080E30E94CB048FE19EE40197D8
:100A8000F1F700C0000060E080E20E94CB048FE13B
:100A90009EE40197F1F700C0000088E20E94E8049C
:100AA0008CE00E94E8040E94100586E00C94E804A3
:100AB000CF93DF9300D0CDB7DEB7198290E49A834D
:100AC0008C0F9D2F911DFC018181860F80680F90F6
:100AD0000F90DF91CF910C94E804CF93DF93EC015A
:100AE0008991811103C0DF91CF9108950E94FC0488
:100AF000F7CF0F931F93CF93DF9300D000D000D098
:100B0000CDB7DEB79F938F9384E891E09F938F9347
:100B10001F9286E08F938E010F5F1F4F1F930F93DD
:100B20000E94A809C8010E946D050FB6F894DEBFA7
:100B30000FBECDBF26960FB6F894DEBF0FBECDBF59
:100B4000DF91CF911F910F91089550E040E064E054
:100B500082E090E00C94CD0350E040E062E082E05F
:100B600090E00C94CD03CF93DF93D82F41E050E079
:100B700063E082E090E00E946603C8E00E94AC055A
:100B800041E050E0D0FD02C050E040E063E082E090
:100B900090E00E94CD038AE08A95F1F700C041E021
:100BA00050E062E082E090E00E94CD038AE08A9506
:100BB000F1F700C0D695C15009F7DF91CF910C94A1
:100BC000AC05EF92FF921F93CF93DF93C82F0E9443
:100BD000A5050E94AC0525E12A95F1F7000041E04A
:100BE00050E064E082E090E00E94CD0385E18A95C8
:100BF000F1F700008C2F81600E94B30550E040E0C7
:100C000063E082E090E00E94660341E063E082E0FE
:100C100090E00E949B03D0E0C0E010E0EE24E3945B
:100C2000F12C0E94AC052AE02A95F1F700C063E0A0
:100C300082E090E00E942504882339F0C7010C2E41
:100C400001C0880F0A94EAF7182B41E050E062E0F7
:100C500082E090E00E94CD038AE08A95F1F700C01F
:100C60002196C830D105E9F60E94A50525E12A950F
:100C7000F1F70000812FDF91CF911F91FF90EF904E
:100C80000895CF93DF93D82FC62F0E94A5050E9409
:100C9000AC0585E18A95F1F7000041E050E064E0A1
:100CA00082E090E00E94CD0385E18A95F1F7000093
:100CB0008D2F0E94B3058C2F0E94B3050E94A505BD
:100CC00085E18A95F1F70000DF91CF910895982F83
:100CD00092959F708F702AE0929F800D1124089545
:100CE0006AE00E945209292F30E1839FC00111243C
:100CF000822B089541E050E062E082E090E00E94A3
:100D0000660341E050E063E082E090E00E94660309
:100D100041E050E064E082E090E00E9466030E94BF
:100D2000A5050E94AC0550E040E063E082E090E061
:100D30000E94CD032FEF80E792E021508040904049
:100D4000E1F700C0000060E08EE80E9441068FE3FA
:100D50009CE90197F1F700C0000080E80E94E105DE
:100D600087FF0BC0682F6F7780E80E9441068FE3F2
:100D70009CE90197F1F700C000000895CF93DF933D
:100D8000EC0160E08EE80E9441068FE19EE401974D
:100D9000F1F700C0000088810E947006682F6F770D
:100DA00080E80E94410689810E947006682F82E8CF
:100DB0000E9441068A810E947006682F84E80E9482
:100DC00041068C810E947006682F86E80E944106C9
:100DD0008D810E947006682F88E80E9441068B81F1
:100DE0000E947006682F8AE80E9441068E810E9448
:100DF0007006682F8CE80E9441068FE19EE40197FF
:100E0000F1F700C0000060E88EE8DF91CF910C940C
:100E100041069F92AF92BF92CF92DF92EF92FF92E4
:100E20000F931F93CF93DF93EC0180E80E94E105BD
:100E3000082F82E80E94E105182F84E80E94E1054E
:100E4000D82E86E80E94E105982E88E80E94E105E8
:100E5000A82E8AE80E94E105B82E8CE80E94E105E0
:100E6000C82E0F3FC1F41F3FE1F41A821982188285
:100E700081E08C838D838B8388E18E8381E0DF9199
:100E8000CF911F910F91FF90EF90DF90CF90BF9087
:100E9000AF909F900895011104C0111102C0DD2090
:100EA00021F3802F8F770E946706F82E8883812F89
:100EB0008F770E946706E82E89838D2D8F730E949D
:100EC0006706D82E8A83892D8F730E946706182F94
:100ED0008C838A2D8F710E946706082F8D838B2D3E
:100EE00087700E9467068B838C2D0E9467068E8315
:100EF00087E18D1558F08BE38E1540F08F1530F09B
:100F00000D3020F480E0103208F4B9CF1A82198233
:100F10001882B4CFFC018181811103C081E09081EE
:100F2000911180E00895CF93DF9300D000D000D0DE
:100F30001F92CDB7DEB70E9468010E94B6020E94E0
:100F40001A050E947A060E94CF0078940E9410052C
:100F500060E080E00E94580587E591E00E946D0501
:100F600060E081E00E94580587E691E00E946D05EF
:100F70002FEF8DE399E4215080409040E1F700C0CD
:100F800000000E94100544244A94F12CE12C10E04A
:100F900000E082E0682E712CCC24C394D12C24E78D
:100FA000A22EB12C33E0832E912C809195018823C1
:100FB00009F440C010929501CE0101960E940907E4
:100FC000811103C1CE0101960E94D8008B810E943D
:100FD0003901898181112EC03A805B80632D852D76
:100FE0000E944401882331F1632D852D0E94500118
:100FF00090918801292F2823E9F420919B013091B9
:101000009C01232BB9F4982B9093880170929C013A
:1010100060929B018091970190919801A091990114
:10102000B0919A0180938D0190938E01A0938F01CE
:10103000B093900180919601882309F457C0809164
:101040009B0190919C01892B39F080919B0190919B
:101050009C01019709F04AC0109296010E948701F5
:101060002AE62A95F1F700C00E94E301882331F0B7
:101070000E94E601B5010E945E098B01C80101973B
:10108000439708F0ABC08091970190919801A0918F
:101090009901B0919A014091910150919201609112
:1010A000930170919401841B950BA60BB70B8C32A6
:1010B0009140A105B105D0F080919B0190919C01D8
:1010C000892BA1F4D0929C01C0929B018091970141
:1010D00090919801A0919901B0919A018093890112
:1010E00090938A01A0938B01B0938C0180919B0116
:1010F00090919C018230910509F47CC08330910568
:1011000009F49DC0019769F580919701909198012C
:10111000A0919901B0919A014091890150918A0161
:1011200060918B0170918C01841B950BA60BB70B02
:1011300084369105A105B105A0F090929C018092A2
:101140009B018091970190919801A0919901B09194
:101150009A0180938D0190938E01A0938F01B0939B
:1011600090018091970190919801A0919901B0917F
:101170009A01409191015091920160919301709177
:101180009401841B950BA60BB70B552453948C32FA
:101190009140A105B10508F0512C80919B019091DF
:1011A0009C018E159F0511F4451461F080919B01FF
:1011B00090919C01452DB8010E940E0180919B01E8
:1011C00090919C01452C7C01F0CE60E080E00E9473
:1011D000580583E791E00E946D05F8CE80919B0150
:1011E00090919C01019709F081CF10929C0110927F
:1011F0009B017CCF0E94EB01809197019091980117
:10120000A0919901B0919A0140918D0150918E0168
:1012100060918F0170919001841B950BA60BB70B09
:101220008C3B9240A105B10508F49BCF0E949A0225
:1012300010929C0110929B0110E000E092CF0E945E
:10124000EB018091970190919801A0919901B09143
:101250009A0140918D0150918E0160918F017091A2
:101260009001841B950BA60BB70B8C329140A10506
:10127000B10508F476CF0E949A0210929C01109258
:101280009B018091970190919801A0919901B09153
:101290009A018093910190939201A0939301B0934E
:1012A0009401CACF991B79E004C0991F961708F0E2
:1012B000961B881F7A95C9F780950895AA1BBB1BBA
:1012C00051E107C0AA1FBB1FA617B70710F0A61B46
:1012D000B70B881F991F5A95A9F780959095BC0167
:1012E000CD01089597FB072E16F4009407D077FDE3
:1012F00009D00E945E0907FC05D03EF490958195C7
:101300009F4F0895709561957F4F0895A1E21A2E21
:10131000AA1BBB1BFD010DC0AA1FBB1FEE1FFF1F99
:10132000A217B307E407F50720F0A21BB30BE40BE9
:10133000F50B661F771F881F991F1A9469F7609530
:101340007095809590959B01AC01BD01CF010895EA
:10135000AEE0B0E0EEEAF9E00C94640C0D891E8971
:101360008F89988D26E02C831A83098397FF02C00A
:1013700080E090E801979E838D83AE01455E5F4FCC
:10138000698D7A8DCE0101960E94D8094D815E81CA
:1013900057FD0AC02F813885421753070CF49A0174
:1013A000020F131FF80110822E96E4E00C94800CBB
:1013B000ABE0B0E0EEEDF9E00C94560C7C013B01A3
:1013C0008A01FC0117821682838181FFC8C1CE0188
:1013D00001965C01F7019381F30193FD859193FFE1
:1013E00081913F01882309F453C1853239F493FD7B
:1013F000859193FF81913F01853229F4B70190E0F7
:101400000E94C80BE7CF912C212C312CFFE1F31562
:1014100038F08B3211F190F4803209F1833229F1E6
:1014200037FC3CC020ED280F2A3050F536FE20C096
:101430008AE0989E200D1124922E06C08D3291F0E4
:10144000803371F7689430F8F30193FD859193FF31
:1014500081913F018111DACF21C0689431F86894FD
:1014600032F8F2CF689433F8EFCF689434F8ECCFC9
:10147000EAE02E9E200D1124222E689435F8E4CF48
:101480008E3229F436FC04C1689436F8DDCF8C36F0
:1014900019F4689437F8D8CF8836B1F2982F9F7D29
:1014A00095549330E0F08336A1F18337C1F1833551
:1014B00009F063C02801F2E04F0E511CF801C08012
:1014C000D180692D70E036FC02C06FEF7FEFC6015E
:1014D0000E94B20B4C01689437F882010AC00C5F7D
:1014E0001F4FFFE3F98388248394912C6501E894CE
:1014F00037F833FE2DC0522C8114910471F555201C
:1015000009F468CFB70180E290E00E94C80B5A94BA
:10151000F6CFF801808189830E5F1F4FE4CF280149
:10152000F2E04F0E511CF801C080D180692D70E0AF
:1015300036FC02C06FEF7FEFC6010E94BD0B4C016D
:101540008201D5CFB70180E290E00E94C80B2A94B7
:101550002814190409F0B0F7CECFF60137FC8591B5
:1015600037FE81916F01B70190E00E94C80B5110C6
:101570005A94F1E08F1A9108BFCF843619F089365A
:1015800009F077C0F80137FE6BC0608171818281FC
:1015900093810C5F1F4FF32DFF763F2E97FF09C0FD
:1015A00090958095709561957F4F8F4F9F4F689470
:1015B00037F82AE030E0A5010E94F80BC82ECA18BF
:1015C0008C2C432C36FE0CC0E89440F8C91440F42F
:1015D00034FE05C032FC03C0F32DFE7E4F2E892C55
:1015E00044FE95C0FE01EC0DF11D8081803309F0B1
:1015F00087C0242D297E422E842D8870582E43FCCE
:1016000095C040FE8FC09C2C821418F42C0C922C98
:10161000981844FE91C0B70180E390E00E94C80B87
:1016200042FE09C088E790E041FE02C088E590E0F4
:10163000B7010E94C80BC91408F48AC0CA94D12CFF
:101640009FEFC91AD90ACA0CDB1CF60182916F01FF
:10165000B70190E00E94C80BAC14BD04B1F74FCFA6
:1016600060817181072E000C880B990B0E5F1F4F54
:1016700092CFD32CE894D4F82AE030E0853739F1C2
:10168000232D297FD22E8F3601F148F48835A9F019
:10169000F701868197812B96E2E10C94720C8037DA
:1016A00049F08837A9F7D4FE02C06894D2F820E147
:1016B00030E00DC06894D4F8F6CF34FE03C0822F1A
:1016C0008660D82E20E132E002C028E030E0F80148
:1016D000D7FE0FC060817181828193810C5F1F4FA3
:1016E000A5010E94F80BC82ECA183D2CE89437F8C3
:1016F00067CF6081718190E080E00E5F1F4FF0CF77
:1017000042FC02C0839478CF8394839475CF842D58
:10171000867809F471CFF6CFB70180E290E00E949D
:10172000C80B83948214C0F3512C73CF522C5818D9
:10173000821408F46ECFF8CF842D867809F47BCF1D
:101740008BE241FE80E247FC8DE2B70190E071CF71
:10175000B70180E390E00E94C80B9A946CCF8FEFA2
:101760009FEF99CFFC010590615070400110D8F7B0
:10177000809590958E0F9F1F0895FC0161507040D9
:1017800001900110D8F7809590958E0F9F1F0895B6
:101790000F931F93CF93DF93182F092FEB018B81AA
:1017A00081FD09C01FEF0FEF812F902FDF91CF91A7
:1017B0001F910F91089582FF14C02E813F818C816B
:1017C0009D81281739073CF4E881F981CF01019602
:1017D0009983888310838E819F8101969F838E8356
:1017E000E3CFE885F985812F0995892BA1F3DACF1D
:1017F000FA01AA27283051F1203181F1E8946F9342
:101800006E7F6E5F7F4F8F4F9F4FAF4FB1E03ED0E7
:10181000B4E03CD0670F781F891F9A1FA11D680F85
:10182000791F8A1F911DA11D6A0F711D811D911DB8
:10183000A11D20D009F468943F912AE0269F11242D
:101840003019305D3193DEF6CF010895462F477091
:10185000405D4193B3E00FD0C9F7F6CF462F4F70EC
:10186000405D4A3318F0495D31FD4052419302D04A
:10187000A9F7EACFB4E0A6959795879577956795F0
:10188000BA95C9F700976105710508959B01AC01F0
:101890000A2E06945795479537952795BA95C9F717
:1018A000620F731F841F951FA01D08952F923F92F2
:1018B0004F925F926F927F928F929F92AF92BF9260
:1018C000CF92DF92EF92FF920F931F93CF93DF930C
:1018D000CDB7DEB7CA1BDB0B0FB6F894DEBF0FBE69
:1018E000CDBF09942A88398848885F846E847D84B6
:1018F0008C849B84AA84B984C884DF80EE80FD80B8
:101900000C811B81AA81B981CE0FD11D0FB6F8942D
:0E191000DEBF0FBECDBFED010895F894FFCFEE
:10191E00FF010000010101000000010100000001B3
:10192E00013A0020202020202020202020202020CE
:10193E00202020004E657874204D65616C00536E3A
:10194E0061636B20526561647900446574656374EC
:10195E006564203C3230636D0044697370656E734C
:10196E00696E672E2E2E0043617420466565646590
:10197E00722076322E30005374617274696E672E47
:10198E002E2E00525443204552524F5221202020D9
:08199E00202020002575000047
:00000001FF
