:100000000C9434000C9451000C9451000C94510049
:100010000C9451000C94B1020C9451000C942904DE
:100020000C9451000C9451000C9451000C9451000C
:100030000C9451000C943C030C945F000C94510000
:100040000C9451000C9451000C9451000C945100EC
:100050000C9451000C9451000C9451000C945100DC
:100060000C9451000C94510011241FBECFEFD8E026
:10007000DEBFCDBF12E0A0E0B1E0EAE3FBE102C0E9
:1000800005900D92AE3EB107D9F723E0AEEEB2E097
:1000900001C01D92A431B207E1F70E942C090C9413
:1000A0009B0D0C94000081E08093FF0208959093D3
:1000B000FB028093FA0281E08093000308951F926F
:1000C0000F920FB60F9211242F933F934F935F938C
:1000D0006F937F938F939F93AF93BF93EF93FF9310
:1000E0008091010390910203A0910303B091040356
:1000F0000196A11DB11D8093010390930203A0936B
:100100000303B09304036091010370910203809193
:1001100003039091040322E330E040E050E00E94AA
:10012000940A672B682B692B71F4809105039091D9
:100130000603892B31F08091050390910603019706
:1001400011F40E94A3036091010370910203809156
:1001500003039091040324E630E040E050E00E9465
:10016000940A672B682B692B09F056C081E08093B5
:10017000FE028091F7028F5F8093F7028091F70271
:100180008C3308F449C01092F7028091F8028F5F17
:100190008093F8028091F8028C33B8F01092F80244
:1001A0008091F9028F5F8093F9028091F902883182
:1001B00010F01092F9028091F902813031F48091AF
:1001C000F802811102C01092F6028091F7028111AB
:1001D00023C09091F8028091F902863091F481E079
:1001E000911114C08823C1F09091F8028091F90216
:1001F000863009F060C081E0992309F462C080E094
:1002000060C08D3029F481E09B3061F380E0EACF5B
:10021000823129F3882319F360910103709102035D
:10022000809103039091040320E63AEE40E050E011
:100230000E94940A672B682B692B19F481E0809344
:10024000FD028091050390910603019719F58091B5
:10025000010390910203A0910303B0910403409124
:10026000EE025091EF026091F0027091F102841B56
:10027000950BA60BB70B84369105A105B10550F07F
:1002800083E090E0909306038093050388EB9BE066
:100290000E94F503FF91EF91BF91AF919F918F91D4
:1002A0007F916F915F914F913F912F910F900FBE72
:1002B0000F901F9018958D30C9F482E09B3009F0A3
:1002C0009ECF9091F602982309F0A6CF20910503C6
:1002D00030910603232B09F09FCF9091F602892BD2
:1002E0008093F60281E08093FC0296CF823121F464
:1002F00084E0911184CFE5CF811181CF9111E1CFBD
:1003000088E0DFCF82E084BD95E095BD9CE997BD94
:1003100080936E0008951F93CF93DF93F89410910C
:10032000F902D091F802C091F702789460E080E081
:100330000E94F1061A3020F48EEC91E00E9406072C
:10034000812F90E00E9412078BE691E00E94060741
:10035000DA3020F48EEC91E00E9406078D2F90E0B9
:100360000E9412078BE691E00E940607CA3020F433
:100370008EEC91E00E9406078C2F90E00E941207FD
:100380008AE191E0DF91CF911F910C9406071F93B2
:10039000CF93DF93EC01142F60E081E00E94F1061F
:1003A00080E191E00E94060760E081E00E94F10692
:1003B000C130D105A1F040F086E491E0249750F0DF
:1003C000DF91CF911F91089581E291E0111102C058
:1003D0008BE291E0DF91CF911F910C94060787E3A8
:1003E00091E0F8CFCF93DF9300D000D000D01F92E0
:1003F000CDB7DEB789E18F838CE08E8382E18D8378
:100400008DE08B838AE08A8383E1898381E08C831A
:10041000CE0101960E9457082FEF81EE94E0215003
:1004200080409040E1F700C00000F8948B818093F9
:10043000F9028A818093F80289818093F702789487
:1004400084E591E00E9429068DE691E00E94F10585
:100450008F8190E00E94FD0582E791E00E94F10506
:100460008E818A3020F48EEC91E00E94F1058E811D
:1004700090E00E94FD0582E791E00E94F1058D81E8
:100480008A3020F48EEC91E00E94F1058D8190E09D
:100490000E94FD058FE191E00E94F1058B818A3079
:1004A00020F48EEC91E00E94F1058B8190E00E9497
:1004B000FD058BE691E00E94F1058A818A3020F4E7
:1004C0008EEC91E00E94F1058A8190E00E94FD058A
:1004D0008BE691E00E94F10589818A3020F48EEC50
:1004E00091E00E94F105898190E00E94FD0580E283
:1004F00091E00E94290684E791E00E942906279650
:100500000FB6F894DEBF0FBECDBFDF91CF91089537
:10051000CF93DF9300D000D000D01F92CDB7DEB7CD
:10052000CE0101960E94A208811118C0F8948B8117
:100530008093F9028A818093F80289818093F7027F
:1005400078948DE891E00E94290627960FB6F894DA
:10055000DEBF0FBECDBFDF91CF9108958FEA91E04E
:10056000F2CF1F920F920FB60F9211242F933F9349
:100570004F935F936F937F938F939F93AF93BF93AB
:10058000EF93FF9366E082E090E00E94BE05209129
:100590000E0330910F032130310509F58130F9F454
:1005A000809184009091850090930D0380930C03BB
:1005B00082E090E090930F0380930E03FF91EF9100
:1005C000BF91AF919F918F917F916F915F914F916B
:1005D0003F912F910F900FBE0F901F901895209173
:1005E0000E0330910F032230310541F78111E6CF20
:1005F000809184009091850090930B0380930A036F
:1006000020910A0330910B0380910C0390910D030C
:100610002817390738F180910A0390910B03209134
:100620000C0330910D03821B930B9093090380936D
:100630000803209108033091090310920F031092D0
:100640000E0381E080930703909168009B7F909355
:100650006800C90164E770E00E94800ACB010E9433
:100660005700ACCF80910A0390910B0320910C03AB
:1006700030910D030197D7CF1F920F920FB60F92B3
:1006800011242F933F934F935F936F937F938F9397
:100690009F93AF93BF93EF93FF9380910E0390913D
:1006A0000F03019731F080910E0390910F03029791
:1006B000A1F410920F0310920E03109209031092EE
:1006C000080381E080930703809168008B7F80930B
:1006D000680090E080E00E945700FF91EF91BF9189
:1006E000AF919F918F917F916F915F914F913F91CA
:1006F0002F910F900FBE0F901F90189541E050E082
:1007000067E082E090E00E94FF0450E040E066E095
:1007100082E090E00E94FF0450E040E067E082E069
:1007200090E00E9466051092800082E08093810034
:10073000109285001092840081E080936F0080E425
:1007400080936D00089580910E0390910F03892B83
:1007500049F510920703109209031092080381E0F3
:1007600090E090930F0380930E03109285001092F7
:10077000840084E08BBB8091680084608093680073
:1007800041E050E067E082E090E00E94660585E38A
:100790008A95F1F7000050E040E067E082E090E0E9
:1007A0000C946605089580910703089580910803CD
:1007B0009091090308958091080390910903892B72
:1007C00051F0809108039091090364E770E00E9462
:1007D000800ACB01089590E080E0089510920F0305
:1007E00010920E0310920703089510921303909332
:1007F00012038093110381E0809310030895809188
:100800001003811103C081E08093100308951092BA
:100810001003109212031092110350E040E060E0C8
:1008200090E080E00E94660550E040E061E090E0EA
:1008300080E00E94660550E040E062E090E080E0E9
:100840000E94660550E040E063E090E080E00C9498
:1008500066051F920F920FB60F9211242F933F93AC
:100860004F935F936F937F938F939F93AF93BF93B8
:10087000EF93FF9380911003882309F478C080914F
:10088000110390911203892B09F471C0E0911303B5
:1008900084E0E89FF0011124E050FF4F41E050E078
:1008A0008081811102C050E040E060E090E080E093
:1008B0000E946605E091130384E0E89FF001112493
:1008C000E050FF4F41E050E08181811102C050E0D3
:1008D00040E061E090E080E00E946605E091130353
:1008E00084E0E89FF0011124E050FF4F41E050E028
:1008F0008281811102C050E040E062E090E080E03F
:100900000E946605E091130384E0E89FF001112442
:10091000E050FF4F41E050E08381811102C050E080
:1009200040E063E090E080E00E9466058091130360
:1009300090E00196837099278093130380911103AF
:1009400090911203029720F180911103909112036C
:100950000297909312038093110380911103909159
:100960001203892B21F40E9407040E945300FF9177
:10097000EF91BF91AF919F918F917F916F915F9117
:100980004F913F912F910F900FBE0F901F90189590
:100990001092120310921103E0CF41E050E060E0AA
:1009A00090E080E00E94FF0441E050E061E090E0D0
:1009B00080E00E94FF0441E050E062E090E080E0CF
:1009C0000E94FF0441E050E063E090E080E00E947C
:1009D000FF040E94070482E08093B00097E09093A8
:1009E000B1009FE19093B3008093700008958091CF
:1009F000100308958091110390911203089581309E
:100A00009105A1F018F00297F9F0089581E090E0C7
:100A100001C0880F6A95EAF794B14130510519F485
:100A2000892B84B9089580958923FBCF01C0880F55
:100A30006A95EAF797B14130510519F4892B87B9C6
:100A4000089580958923FBCF81E090E001C0880F55
:100A50006A95EAF79AB14130510519F4892B8AB9A0
:100A6000089580958923FBCF8130910599F018F086
:100A70000297E9F0089581E090E001C0880F6A953F
:100A8000EAF795B1442319F0892B85B9089580952B
:100A90008923FBCF01C0880F6A95EAF798B14423F8
:100AA00019F0892B88B9089580958923FBCF81E0BF
:100AB00090E001C0880F6A95EAF79BB1442319F0D2
:100AC000892B8BB9089580958923FBCF81309105BF
:100AD000A1F018F00297F9F0089581E090E001C0CC
:100AE000880F6A95EAF795B14130510519F4892BC1
:100AF00085B9089580958923FBCF01C0880F6A9539
:100B0000EAF798B14130510519F4892B88B9089555
:100B100080958923FBCF81E090E001C0880F6A9522
:100B2000EAF79BB14130510519F4892B8BB908952F
:100B300080958923FBCF8130910571F018F00297E1
:100B400099F0089585B121E030E001C0220F6A9547
:100B5000EAF7822785B9089528B101C0880F6A9500
:100B6000EAF7822788B908958BB121E030E001C00F
:100B7000220F6A95EAF782278BB908958130910593
:100B800081F028F0029779F090E080E0089583B139
:100B900090E002C0959587956A95E2F78170992754
:100BA000089586B1F5CF89B1F3CF9B01AC0160E424
:100BB00072E48FE090E00E94940A21503109309352
:100BC000C5002093C40088E08093C10086E0809334
:100BD000C20008959091C00095FFFCCF8093C6009D
:100BE0000895CF93DF93EC018991811103C0DF91C8
:100BF000CF9108950E94EA05F7CF0F931F93CF93EB
:100C0000DF9300D000D000D0CDB7DEB79F938F9395
:100C10008AEE92E09F938F931F9286E08F938E01CE
:100C20000F5F1F4F1F930F930E94B60AC8010E94C7
:100C3000F1050FB6F894DEBF0FBECDBF26960FB6F6
:100C4000F894DEBF0FBECDBFDF91CF911F910F9102
:100C500008950E94F1058DE00E94EA058AE00C9457
:100C6000EA0588E48093B8001092B90084E080938C
:100C7000BC00089584EA8093BC008091BC0087FF8B
:100C8000FCCF089584E98093BC0008958093BB0055
:100C900084E88093BC008091BC0087FFFCCF08955E
:100CA00084EC8093BC008091BC0087FFFCCF8091D6
:100CB000BB00089584E88093BC008091BC0087FF4E
:100CC000FCCF8091BB000895CF93C82FC62B0E9404
:100CD0003A068EE40E9446068C2F8C600E944606DF
:100CE00085E08A95F1F700008C2F88600E94460607
:100CF00087EC90E00197F1F700C00000CF910C94D1
:100D00004206CF93C82F60E0807F0E94640660E0B7
:100D10008C2F8295807F0E9464068FE39FE101976C
:100D2000F1F700C00000CF910895CF93C82F61E084
:100D3000807F0E94640661E08C2F8295807F0E94F4
:100D400064068FE39FE10197F1F700C00000CF91A7
:100D5000089581E00E9481068FE39FE10197F1F7FA
:100D600000C0000008950E9431062FEF80E792E056
:100D7000215080409040E1F700C0000060E080E337
:100D80000E9464068FE19EE40197F1F700C0000025
:100D900060E080E30E94640687E592E00197F1F746
:100DA00000C0000060E080E30E9464068FE19EE4E2
:100DB0000197F1F700C0000060E080E20E94640645
:100DC0008FE19EE40197F1F700C0000088E20E94E5
:100DD00081068CE00E9481060E94A90686E00C94A0
:100DE0008106CF93DF9300D0CDB7DEB7198290E4B0
:100DF0009A838C0F9D2F911DFC018181860F806845
:100E00000F900F90DF91CF910C948106CF93DF93D9
:100E1000EC018991811103C0DF91CF9108950E9467
:100E20009506F7CF0F931F93CF93DF9300D000D099
:100E300000D0CDB7DEB79F938F938AEE92E09F9359
:100E40008F931F9286E08F938E010F5F1F4F1F932A
:100E50000F930E94B60AC8010E9406070FB6F894C5
:100E6000DEBF0FBECDBF26960FB6F894DEBF0FBE15
:100E7000CDBFDF91CF911F910F91089550E040E0D9
:100E800064E082E090E00C94660550E040E062E0AF
:100E900082E090E00C946605CF93DF93D82F41E079
:100EA00050E063E082E090E00E94FF04C8E00E940E
:100EB000450741E050E0D0FD02C050E040E063E073
:100EC00082E090E00E9466058AE08A95F1F700C012
:100ED00041E050E062E082E090E00E9466058AE036
:100EE0008A95F1F700C0D695C15009F7DF91CF91EF
:100EF0000C944507EF92FF921F93CF93DF93C82F77
:100F00000E943E070E94450725E12A95F1F700005F
:100F100041E050E064E082E090E00E94660585E1F7
:100F20008A95F1F700008C2F81600E944C0750E0F9
:100F300040E063E082E090E00E94FF0441E063E073
:100F400082E090E00E943405D0E0C0E010E0EE24A2
:100F5000E394F12C0E9445072AE02A95F1F700C09E
:100F600063E082E090E00E94BE05882339F0C7016B
:100F70000C2E01C0880F0A94EAF7182B41E050E0CC
:100F800062E082E090E00E9466058AE08A95F1F7CF
:100F900000C02196C830D105E9F60E943E0725E140
:100FA0002A95F1F70000812FDF91CF911F91FF90DB
:100FB000EF900895CF93DF93D82FC62F0E943E075E
:100FC0000E94450785E18A95F1F7000041E050E075
:100FD00064E082E090E00E94660585E18A95F1F781
:100FE00000008D2F0E944C078C2F0E944C070E94FE
:100FF0003E0785E18A95F1F70000DF91CF910895D2
:10100000982F92959F708F702AE0929F800D1124E7
:1010100008956AE00E94740A292F30E1839FC0017D
:101020001124822B089541E050E062E082E090E0DC
:101030000E94FF0441E050E063E082E090E00E9403
:10104000FF0441E050E064E082E090E00E94FF0491
:101050000E943E070E94450750E040E063E082E0C6
:1010600090E00E9466052FEF80E792E021508040DB
:101070009040E1F700C0000060E08EE80E94DA07CF
:101080008FE39CE90197F1F700C0000080E80E941F
:101090007A0787FF0BC0682F6F7780E80E94DA0716
:1010A0008FE39CE90197F1F700C000000895CF930A
:1010B000DF93EC0160E08EE80E94DA078FE19EE4A6
:1010C0000197F1F700C0000088810E940908682F8D
:1010D0006F7780E80E94DA0789810E940908682FEB
:1010E00082E80E94DA078A810E940908682F84E852
:1010F0000E94DA078C810E940908682F86E80E9406
:10110000DA078D810E940908682F88E80E94DA07B3
:101110008B810E940908682F8AE80E94DA078E8175
:101120000E940908682F8CE80E94DA078FE19EE48C
:101130000197F1F700C0000060E88EE8DF91CF91E1
:101140000C94DA079F92AF92BF92CF92DF92EF9208
:10115000FF920F931F93CF93DF93EC0180E80E94DF
:101160007A07082F82E80E947A07182F84E80E94E5
:101170007A07D82E86E80E947A07982E88E80E947F
:101180007A07A82E8AE80E947A07B82E8CE80E9477
:101190007A07C82E0F3FC1F41F3FE1F41A8219826B
:1011A000188281E08C838D838B8388E18E8381E03C
:1011B000DF91CF911F910F91FF90EF90DF90CF9033
:1011C000BF90AF909F900895011104C0111102C00B
:1011D000DD2021F3802F8F770E940008F82E88836E
:1011E000812F8F770E940008E82E89838D2D8F73C1
:1011F0000E940008D82E8A83892D8F730E940008D0
:10120000182F8C838A2D8F710E940008082F8D83E0
:101210008B2D87700E9400088B838C2D0E94000804
:101220008E8387E18D1558F08BE38E1540F08F1576
:1012300030F00D3020F480E0103208F4B9CF1A827B
:1012400019821882B4CFFC018181811103C081E031
:101250009081911180E0089560E875E280E090E06F
:101260000E94D5050E947E030E94CD040E94B30611
:101270000E9413080E94820178940E94A90660E0EF
:1012800080E00E94F10680EC91E00E94060760E099
:1012900081E00E94F10680ED91E00E9406072FEFA9
:1012A0008DE399E4215080409040E1F700C00000B8
:1012B00081EE91E00E94290689EF91E00E942906C3
:1012C0000E94F20180E192E00E9429068EE192E004
:1012D0000E9429060E94A906D0E0C0E00FEFF12C81
:1012E000E12C82E0C82ED12CAA24A394B12C8091A9
:1012F000FE02882321F01092FE020E948B01809151
:10130000FD02882321F01092FD020E948802809144
:10131000FC028823A1F08091050390910603892B9C
:1013200071F41092FC0286E392E00E942906D092AA
:101330000603C092050388E59BE10E94F5038091B6
:101340000003882309F451C010920003C091FA02EF
:10135000D091FB0283E592E00E94F105CE010E944C
:10136000FD058EE592E00E942906CE010197439784
:1013700008F086C04091010350910203609103037D
:10138000709104038091F2029091F302A091F40213
:10139000B091F502481759076A077B0708F46BC03C
:1013A0008091050390910603892BF9F482E692E07F
:1013B0000E94F105CE010E94FD0583E792E00E94A4
:1013C0002906B0920603A092050380910103909133
:1013D0000203A0910303B09104038093EE02909363
:1013E000EF02A093F002B093F1028091FF028823F4
:1013F00099F01092FF0280910503909106030297E5
:1014000009F04EC080EB92E00E942906109206037C
:1014100010920503D0E0C0E0409101035091020317
:1014200060910303709104038091F2029091F302A2
:10143000A091F402B091F50211E0481759076A072C
:101440007B0708F010E080910503909106038E154C
:101450009F0511F4011761F0809105039091060337
:10146000412FBE010E94C7018091050390910603A0
:10147000012F7C013CCF87E892E00E942906B5CF7E
:101480008091050390910603019709F0AECF81EAA0
:1014900092E00E9429061092060310920503A5CF40
:1014A0008091050390910603039709F0B3CF89EC6F
:1014B00092E00E9429061092060310920503809183
:1014C000010390910203A0910303B0910403845D92
:1014D0009E4FAF4FBF4F8093F2029093F302A093C1
:1014E000F402B093F50296CF991B79E004C0991FDE
:1014F000961708F0961B881F7A95C9F7809508956E
:10150000AA1BBB1B51E107C0AA1FBB1FA617B70729
:1015100010F0A61BB70B881F991F5A95A9F7809545
:101520009095BC01CD010895A1E21A2EAA1BBB1B08
:10153000FD010DC0AA1FBB1FEE1FFF1FA217B3079F
:10154000E407F50720F0A21BB30BE40BF50B661FB5
:10155000771F881F991F1A9469F760957095809579
:1015600090959B01AC01BD01CF010895AEE0B0E0C4
:10157000ECEBFAE00C94720D0D891E898F89988D21
:1015800026E02C831A83098397FF02C080E090E84D
:1015900001979E838D83AE01455E5F4F698D7A8D85
:1015A000CE0101960E94E60A4D815E8157FD0AC078
:1015B0002F813885421753070CF49A01020F131F2D
:1015C000F80110822E96E4E00C948E0DABE0B0E0B2
:1015D000ECEEFAE00C94640D7C013B018A01FC0105
:1015E00017821682838181FFC8C1CE0101965C01FA
:1015F000F7019381F30193FD859193FF81913F0161
:10160000882309F453C1853239F493FD859193FF02
:1016100081913F01853229F4B70190E00E94D60CF8
:10162000E7CF912C212C312CFFE1F31538F08B32D0
:1016300011F190F4803209F1833229F137FC3CC07A
:1016400020ED280F2A3050F536FE20C08AE0989E03
:10165000200D1124922E06C08D3291F0803371F747
:10166000689430F8F30193FD859193FF81913F01D8
:101670008111DACF21C0689431F8689432F8F2CF42
:10168000689433F8EFCF689434F8ECCFEAE02E9EFC
:10169000200D1124222E689435F8E4CF8E3229F4DF
:1016A00036FC04C1689436F8DDCF8C3619F46894A2
:1016B00037F8D8CF8836B1F2982F9F7D9554933064
:1016C000E0F08336A1F18337C1F1833509F063C0BF
:1016D0002801F2E04F0E511CF801C080D180692D25
:1016E00070E036FC02C06FEF7FEFC6010E94C00CB5
:1016F0004C01689437F882010AC00C5F1F4FFFE36A
:10170000F98388248394912C6501E89437F833FE9B
:101710002DC0522C8114910471F5552009F468CF25
:10172000B70180E290E00E94D60C5A94F6CFF801FF
:10173000808189830E5F1F4FE4CF2801F2E04F0EB6
:10174000511CF801C080D180692D70E036FC02C0C8
:101750006FEF7FEFC6010E94CB0C4C018201D5CF09
:10176000B70180E290E00E94D60C2A942814190454
:1017700009F0B0F7CECFF60137FC859137FE8191A5
:101780006F01B70190E00E94D60C51105A94F1E01D
:101790008F1A9108BFCF843619F0893609F077C0C7
:1017A000F80137FE6BC060817181828193810C5F8B
:1017B0001F4FF32DFF763F2E97FF09C09095809520
:1017C000709561957F4F8F4F9F4F689437F82AE04F
:1017D00030E0A5010E94060DC82ECA188C2C432C9F
:1017E00036FE0CC0E89440F8C91440F434FE05C03D
:1017F00032FC03C0F32DFE7E4F2E892C44FE95C093
:10180000FE01EC0DF11D8081803309F087C0242D8D
:10181000297E422E842D8870582E43FC95C040FEB0
:101820008FC09C2C821418F42C0C922C981844FE17
:1018300091C0B70180E390E00E94D60C42FE09C03F
:1018400088E790E041FE02C088E590E0B7010E9481
:10185000D60CC91408F48AC0CA94D12C9FEFC91AB7
:10186000D90ACA0CDB1CF60182916F01B70190E026
:101870000E94D60CAC14BD04B1F74FCF60817181CA
:10188000072E000C880B990B0E5F1F4F92CFD32CA5
:10189000E894D4F82AE030E0853739F1232D297F08
:1018A000D22E8F3601F148F48835A9F0F7018681F0
:1018B00097812B96E2E10C94800D803749F08837B0
:1018C000A9F7D4FE02C06894D2F820E130E00DC040
:1018D0006894D4F8F6CF34FE03C0822F8660D82EE9
:1018E00020E132E002C028E030E0F801D7FE0FC06E
:1018F00060817181828193810C5F1F4FA5010E94DD
:10190000060DC82ECA183D2CE89437F867CF6081C1
:10191000718190E080E00E5F1F4FF0CF42FC02C06B
:10192000839478CF8394839475CF842D867809F43B
:1019300071CFF6CFB70180E290E00E94D60C83947D
:101940008214C0F3512C73CF522C5818821408F40F
:101950006ECFF8CF842D867809F47BCF8BE241FEE1
:1019600080E247FC8DE2B70190E071CFB70180E3E0
:1019700090E00E94D60C9A946CCF8FEF9FEF99CF96
:10198000FC010590615070400110D8F7809590954A
:101990008E0F9F1F0895FC0161507040019001104F
:1019A000D8F7809590958E0F9F1F08950F931F93E2
:1019B000CF93DF93182F092FEB018B8181FD09C095
:1019C0001FEF0FEF812F902FDF91CF911F910F917C
:1019D000089582FF14C02E813F818C819D8128173C
:1019E00039073CF4E881F981CF0101969983888316
:1019F00010838E819F8101969F838E83E3CFE8853C
:101A0000F985812F0995892BA1F3DACFFA01AA274D
:101A1000283051F1203181F1E8946F936E7F6E5F31
:101A20007F4F8F4F9F4FAF4FB1E03ED0B4E03CD0DF
:101A3000670F781F891F9A1FA11D680F791F8A1FC2
:101A4000911DA11D6A0F711D811D911DA11D20D029
:101A500009F468943F912AE0269F11243019305DE3
:101A60003193DEF6CF010895462F4770405D4193D4
:101A7000B3E00FD0C9F7F6CF462F4F70405D4A3321
:101A800018F0495D31FD4052419302D0A9F7EACFE9
:101A9000B4E0A6959795879577956795BA95C9F718
:101AA00000976105710508959B01AC010A2E06940B
:101AB0005795479537952795BA95C9F7620F731FC4
:101AC000841F951FA01D08952F923F924F925F9201
:101AD0006F927F928F929F92AF92BF92CF92DF923E
:101AE000EF92FF920F931F93CF93DF93CDB7DEB7A3
:101AF000CA1BDB0B0FB6F894DEBF0FBECDBF099437
:101B00002A88398848885F846E847D848C849B848D
:101B1000AA84B984C884DF80EE80FD800C811B819B
:101B2000AA81B981CE0FD11D0FB6F894DEBF0FBECA
:0A1B3000CDBFED010895F894FFCF3A
:101B3A000100000101010000000101000000010193
:101B4A00202020202020202020202020202020208B
:101B5A00004E657874204D65616C00536E61636B4D
:101B6A002052656164790044657465637465642014
:101B7A003C3230636D0044697370656E73696E67D9
:101B8A002E2E2E005254432073657420746F2063E6
:101B9A006F6D70696C652074696D653A002020323A
:101BAA0030002D00536F667477617265205254437A
:101BBA0020696E697469616C697A656400536F663D
:101BCA007477617265205254432073796E63656439
:101BDA00207769746820686172647761726500525F
:101BEA0054432073796E63206661696C65642100D1
:101BFA00436174204665656465722076332E300031
:101C0A0046756C6C7920496E7465727275707421B0
:101C1A00003D3D3D20436174204665656465722040
:101C2A0076332E30203D3D3D0046554C4C592049D7
:101C3A004E544552525550542D44524956454E0021
:101C4A0053797374656D20726561647921003D3D35
:101C5A003D3D3D3D3D3D3D3D3D3D3D3D3D3D3D3DAA
:101C6A003D3D3D3D3D005363686564756C65642088
:101C7A0066656564696E672074726967676572650F
:101C8A0064210044697374616E63653A20002063BD
:101C9A006D004361742064657465637465642061D2
:101CAA0074200020636D202D20636F6E6669726D4B
:101CBA00696E672E2E2E00436F6F6C646F776E20ED
:101CCA006163746976652C2069676E6F72696E67E5
:101CDA0000436174206D6F766564206177617900D5
:101CEA005363686564756C65642066656564206322
:101CFA006F6D706C6574652100536E61636B206350
:101D0A006F6D706C6574652120436F6F6C646F77BB
:0E1D1A006E206163746976652E0025750000E9
:00000001FF
